{
  "_format": "hh-sol-artifact-1",
  "contractName": "Ticket",
  "sourceName": "contracts/Ticket.sol",
  "abi": [
    {
      "inputs": [],
      "stateMutability": "nonpayable",
      "type": "constructor"
    },
    {
      "anonymous": false,
      "inputs": [
        {
          "indexed": true,
          "internalType": "address",
          "name": "owner",
          "type": "address"
        },
        {
          "indexed": true,
          "internalType": "address",
          "name": "approved",
          "type": "address"
        },
        {
          "indexed": true,
          "internalType": "uint256",
          "name": "tokenId",
          "type": "uint256"
        }
      ],
      "name": "Approval",
      "type": "event"
    },
    {
      "anonymous": false,
      "inputs": [
        {
          "indexed": true,
          "internalType": "address",
          "name": "owner",
          "type": "address"
        },
        {
          "indexed": true,
          "internalType": "address",
          "name": "operator",
          "type": "address"
        },
        {
          "indexed": false,
          "internalType": "bool",
          "name": "approved",
          "type": "bool"
        }
      ],
      "name": "ApprovalForAll",
      "type": "event"
    },
    {
      "anonymous": false,
      "inputs": [
        {
          "indexed": true,
          "internalType": "address",
          "name": "delegator",
          "type": "address"
        },
        {
          "indexed": true,
          "internalType": "address",
          "name": "fromDelegate",
          "type": "address"
        },
        {
          "indexed": true,
          "internalType": "address",
          "name": "toDelegate",
          "type": "address"
        }
      ],
      "name": "DelegateChanged",
      "type": "event"
    },
    {
      "anonymous": false,
      "inputs": [
        {
          "indexed": true,
          "internalType": "address",
          "name": "delegate",
          "type": "address"
        },
        {
          "indexed": false,
          "internalType": "uint256",
          "name": "previousBalance",
          "type": "uint256"
        },
        {
          "indexed": false,
          "internalType": "uint256",
          "name": "newBalance",
          "type": "uint256"
        }
      ],
      "name": "DelegateVotesChanged",
      "type": "event"
    },
    {
      "anonymous": false,
      "inputs": [
        {
          "indexed": true,
          "internalType": "address",
          "name": "previousOwner",
          "type": "address"
        },
        {
          "indexed": true,
          "internalType": "address",
          "name": "newOwner",
          "type": "address"
        }
      ],
      "name": "OwnershipTransferred",
      "type": "event"
    },
    {
      "anonymous": false,
      "inputs": [
        {
          "indexed": false,
          "internalType": "address",
          "name": "account",
          "type": "address"
        }
      ],
      "name": "Paused",
      "type": "event"
    },
    {
      "anonymous": false,
      "inputs": [
        {
          "indexed": true,
          "internalType": "address",
          "name": "from",
          "type": "address"
        },
        {
          "indexed": true,
          "internalType": "address",
          "name": "to",
          "type": "address"
        },
        {
          "indexed": true,
          "internalType": "uint256",
          "name": "tokenId",
          "type": "uint256"
        }
      ],
      "name": "Transfer",
      "type": "event"
    },
    {
      "anonymous": false,
      "inputs": [
        {
          "indexed": false,
          "internalType": "address",
          "name": "account",
          "type": "address"
        }
      ],
      "name": "Unpaused",
      "type": "event"
    },
    {
      "inputs": [],
      "name": "DOMAIN_SEPARATOR",
      "outputs": [
        {
          "internalType": "bytes32",
          "name": "",
          "type": "bytes32"
        }
      ],
      "stateMutability": "view",
      "type": "function"
    },
    {
      "inputs": [
        {
          "internalType": "address",
          "name": "to",
          "type": "address"
        },
        {
          "internalType": "uint256",
          "name": "tokenId",
          "type": "uint256"
        }
      ],
      "name": "approve",
      "outputs": [],
      "stateMutability": "nonpayable",
      "type": "function"
    },
    {
      "inputs": [
        {
          "internalType": "address",
          "name": "owner",
          "type": "address"
        }
      ],
      "name": "balanceOf",
      "outputs": [
        {
          "internalType": "uint256",
          "name": "",
          "type": "uint256"
        }
      ],
      "stateMutability": "view",
      "type": "function"
    },
    {
      "inputs": [
        {
          "internalType": "uint256",
          "name": "tokenId",
          "type": "uint256"
        }
      ],
      "name": "burn",
      "outputs": [],
      "stateMutability": "nonpayable",
      "type": "function"
    },
    {
      "inputs": [
        {
          "internalType": "address",
          "name": "delegatee",
          "type": "address"
        }
      ],
      "name": "delegate",
      "outputs": [],
      "stateMutability": "nonpayable",
      "type": "function"
    },
    {
      "inputs": [
        {
          "internalType": "address",
          "name": "delegatee",
          "type": "address"
        },
        {
          "internalType": "uint256",
          "name": "nonce",
          "type": "uint256"
        },
        {
          "internalType": "uint256",
          "name": "expiry",
          "type": "uint256"
        },
        {
          "internalType": "uint8",
          "name": "v",
          "type": "uint8"
        },
        {
          "internalType": "bytes32",
          "name": "r",
          "type": "bytes32"
        },
        {
          "internalType": "bytes32",
          "name": "s",
          "type": "bytes32"
        }
      ],
      "name": "delegateBySig",
      "outputs": [],
      "stateMutability": "nonpayable",
      "type": "function"
    },
    {
      "inputs": [
        {
          "internalType": "address",
          "name": "account",
          "type": "address"
        }
      ],
      "name": "delegates",
      "outputs": [
        {
          "internalType": "address",
          "name": "",
          "type": "address"
        }
      ],
      "stateMutability": "view",
      "type": "function"
    },
    {
      "inputs": [
        {
          "internalType": "uint256",
          "name": "tokenId",
          "type": "uint256"
        }
      ],
      "name": "getApproved",
      "outputs": [
        {
          "internalType": "address",
          "name": "",
          "type": "address"
        }
      ],
      "stateMutability": "view",
      "type": "function"
    },
    {
      "inputs": [
        {
          "internalType": "uint256",
          "name": "blockNumber",
          "type": "uint256"
        }
      ],
      "name": "getPastTotalSupply",
      "outputs": [
        {
          "internalType": "uint256",
          "name": "",
          "type": "uint256"
        }
      ],
      "stateMutability": "view",
      "type": "function"
    },
    {
      "inputs": [
        {
          "internalType": "address",
          "name": "account",
          "type": "address"
        },
        {
          "internalType": "uint256",
          "name": "blockNumber",
          "type": "uint256"
        }
      ],
      "name": "getPastVotes",
      "outputs": [
        {
          "internalType": "uint256",
          "name": "",
          "type": "uint256"
        }
      ],
      "stateMutability": "view",
      "type": "function"
    },
    {
      "inputs": [
        {
          "internalType": "address",
          "name": "account",
          "type": "address"
        }
      ],
      "name": "getVotes",
      "outputs": [
        {
          "internalType": "uint256",
          "name": "",
          "type": "uint256"
        }
      ],
      "stateMutability": "view",
      "type": "function"
    },
    {
      "inputs": [
        {
          "internalType": "address",
          "name": "owner",
          "type": "address"
        },
        {
          "internalType": "address",
          "name": "operator",
          "type": "address"
        }
      ],
      "name": "isApprovedForAll",
      "outputs": [
        {
          "internalType": "bool",
          "name": "",
          "type": "bool"
        }
      ],
      "stateMutability": "view",
      "type": "function"
    },
    {
      "inputs": [],
      "name": "name",
      "outputs": [
        {
          "internalType": "string",
          "name": "",
          "type": "string"
        }
      ],
      "stateMutability": "view",
      "type": "function"
    },
    {
      "inputs": [
        {
          "internalType": "address",
          "name": "owner",
          "type": "address"
        }
      ],
      "name": "nonces",
      "outputs": [
        {
          "internalType": "uint256",
          "name": "",
          "type": "uint256"
        }
      ],
      "stateMutability": "view",
      "type": "function"
    },
    {
      "inputs": [],
      "name": "owner",
      "outputs": [
        {
          "internalType": "address",
          "name": "",
          "type": "address"
        }
      ],
      "stateMutability": "view",
      "type": "function"
    },
    {
      "inputs": [
        {
          "internalType": "uint256",
          "name": "tokenId",
          "type": "uint256"
        }
      ],
      "name": "ownerOf",
      "outputs": [
        {
          "internalType": "address",
          "name": "",
          "type": "address"
        }
      ],
      "stateMutability": "view",
      "type": "function"
    },
    {
      "inputs": [],
      "name": "pause",
      "outputs": [],
      "stateMutability": "nonpayable",
      "type": "function"
    },
    {
      "inputs": [],
      "name": "paused",
      "outputs": [
        {
          "internalType": "bool",
          "name": "",
          "type": "bool"
        }
      ],
      "stateMutability": "view",
      "type": "function"
    },
    {
      "inputs": [],
      "name": "renounceOwnership",
      "outputs": [],
      "stateMutability": "nonpayable",
      "type": "function"
    },
    {
      "inputs": [
        {
          "internalType": "address",
          "name": "to",
          "type": "address"
        },
        {
          "internalType": "string",
          "name": "uri",
          "type": "string"
        }
      ],
      "name": "safeMint",
      "outputs": [],
      "stateMutability": "nonpayable",
      "type": "function"
    },
    {
      "inputs": [
        {
          "internalType": "address",
          "name": "from",
          "type": "address"
        },
        {
          "internalType": "address",
          "name": "to",
          "type": "address"
        },
        {
          "internalType": "uint256",
          "name": "tokenId",
          "type": "uint256"
        }
      ],
      "name": "safeTransferFrom",
      "outputs": [],
      "stateMutability": "nonpayable",
      "type": "function"
    },
    {
      "inputs": [
        {
          "internalType": "address",
          "name": "from",
          "type": "address"
        },
        {
          "internalType": "address",
          "name": "to",
          "type": "address"
        },
        {
          "internalType": "uint256",
          "name": "tokenId",
          "type": "uint256"
        },
        {
          "internalType": "bytes",
          "name": "data",
          "type": "bytes"
        }
      ],
      "name": "safeTransferFrom",
      "outputs": [],
      "stateMutability": "nonpayable",
      "type": "function"
    },
    {
      "inputs": [
        {
          "internalType": "address",
          "name": "operator",
          "type": "address"
        },
        {
          "internalType": "bool",
          "name": "approved",
          "type": "bool"
        }
      ],
      "name": "setApprovalForAll",
      "outputs": [],
      "stateMutability": "nonpayable",
      "type": "function"
    },
    {
      "inputs": [
        {
          "internalType": "bytes4",
          "name": "interfaceId",
          "type": "bytes4"
        }
      ],
      "name": "supportsInterface",
      "outputs": [
        {
          "internalType": "bool",
          "name": "",
          "type": "bool"
        }
      ],
      "stateMutability": "view",
      "type": "function"
    },
    {
      "inputs": [],
      "name": "symbol",
      "outputs": [
        {
          "internalType": "string",
          "name": "",
          "type": "string"
        }
      ],
      "stateMutability": "view",
      "type": "function"
    },
    {
      "inputs": [
        {
          "internalType": "uint256",
          "name": "tokenId",
          "type": "uint256"
        }
      ],
      "name": "tokenURI",
      "outputs": [
        {
          "internalType": "string",
          "name": "",
          "type": "string"
        }
      ],
      "stateMutability": "view",
      "type": "function"
    },
    {
      "inputs": [
        {
          "internalType": "address",
          "name": "from",
          "type": "address"
        },
        {
          "internalType": "address",
          "name": "to",
          "type": "address"
        },
        {
          "internalType": "uint256",
          "name": "tokenId",
          "type": "uint256"
        }
      ],
      "name": "transferFrom",
      "outputs": [],
      "stateMutability": "nonpayable",
      "type": "function"
    },
    {
      "inputs": [
        {
          "internalType": "address",
          "name": "newOwner",
          "type": "address"
        }
      ],
      "name": "transferOwnership",
      "outputs": [],
      "stateMutability": "nonpayable",
      "type": "function"
    },
    {
      "inputs": [],
      "name": "unpause",
      "outputs": [],
      "stateMutability": "nonpayable",
      "type": "function"
    }
  ],
  "bytecode": "0x6101406040523480156200001257600080fd5b50604051806040016040528060088152602001674e4654566f74657360c01b815250604051806040016040528060018152602001603160f81b815250604051806040016040528060088152602001674e4654566f74657360c01b8152506040518060400160405280600481526020016327232a2b60e11b8152508160009080519060200190620000a4929190620001c7565b508051620000ba906001906020840190620001c7565b5050825160208085019190912083518483012060e08290526101008190524660a0818152604080517f8b73c3c69bb8fe3d512ecc4cf759cc79239f7b179b0ffacaa9a75d522b39400f81880181905281830187905260608201869052608082019490945230818401528151808203909301835260c0019052805194019390932091935091906080523060601b60c052610120525050600b805460ff1916905550620001679050336200016d565b620002aa565b600b80546001600160a01b03838116610100818102610100600160a81b031985161790945560405193909204169182907f8be0079c531659141344cd1fd0a4f28419497f9722a3daafe3b4186f6b6457e090600090a35050565b828054620001d5906200026d565b90600052602060002090601f016020900481019282620001f9576000855562000244565b82601f106200021457805160ff191683800117855562000244565b8280016001018555821562000244579182015b828111156200024457825182559160200191906001019062000227565b506200025292915062000256565b5090565b5b8082111562000252576000815560010162000257565b600181811c908216806200028257607f821691505b60208210811415620002a457634e487b7160e01b600052602260045260246000fd5b50919050565b60805160a05160c05160601c60e0516101005161012051612bfe620002fd6000396000610e7501526000610ec401526000610e9f01526000610df801526000610e2201526000610e4c0152612bfe6000f3fe608060405234801561001057600080fd5b50600436106101cf5760003560e01c806370a08231116101045780639ab24eb0116100a2578063c87b56dd11610071578063c87b56dd146103cb578063d204c45e146103de578063e985e9c5146103f1578063f2fde38b1461042d57600080fd5b80639ab24eb01461037f578063a22cb46514610392578063b88d4fde146103a5578063c3cda520146103b857600080fd5b80638456cb59116100de5780638456cb59146103465780638da5cb5b1461034e5780638e539e8c1461036457806395d89b411461037757600080fd5b806370a0823114610318578063715018a61461032b5780637ecebe001461033357600080fd5b80633f4ba83a11610171578063587cde1e1161014b578063587cde1e146102bb5780635c19a95c146102e75780635c975abb146102fa5780636352211e1461030557600080fd5b80633f4ba83a1461028d57806342842e0e1461029557806342966c68146102a857600080fd5b8063095ea7b3116101ad578063095ea7b31461023c57806323b872dd146102515780633644e515146102645780633a46b1a81461027a57600080fd5b806301ffc9a7146101d457806306fdde03146101fc578063081812fc14610211575b600080fd5b6101e76101e23660046128c6565b610440565b60405190151581526020015b60405180910390f35b610204610492565b6040516101f391906129b1565b61022461021f366004612900565b610524565b6040516001600160a01b0390911681526020016101f3565b61024f61024a36600461283c565b61054b565b005b61024f61025f3660046126e6565b610666565b61026c610698565b6040519081526020016101f3565b61026c61028836600461283c565b6106a7565b61024f6106d0565b61024f6102a33660046126e6565b6106e2565b61024f6102b6366004612900565b6106fd565b6102246102c9366004612698565b6001600160a01b039081166000908152600660205260409020541690565b61024f6102f5366004612698565b61072e565b600b5460ff166101e7565b610224610313366004612900565b61073d565b61026c610326366004612698565b61079d565b61024f610823565b61026c610341366004612698565b610835565b61024f610853565b600b5461010090046001600160a01b0316610224565b61026c610372366004612900565b610863565b6102046108bf565b61026c61038d366004612698565b6108ce565b61024f6103a036600461279e565b6108fe565b61024f6103b3366004612722565b610909565b61024f6103c6366004612866565b610941565b6102046103d9366004612900565b610a6e565b61024f6103ec3660046127da565b610a79565b6101e76103ff3660046126b3565b6001600160a01b03918216600090815260056020908152604080832093909416825291909152205460ff1690565b61024f61043b366004612698565b610ab0565b60006001600160e01b031982166380ac58cd60e01b148061047157506001600160e01b03198216635b5e139f60e01b145b8061048c57506301ffc9a760e01b6001600160e01b03198316145b92915050565b6060600080546104a190612b25565b80601f01602080910402602001604051908101604052809291908181526020018280546104cd90612b25565b801561051a5780601f106104ef5761010080835404028352916020019161051a565b820191906000526020600020905b8154815290600101906020018083116104fd57829003601f168201915b5050505050905090565b600061052f82610b26565b506000908152600460205260409020546001600160a01b031690565b60006105568261073d565b9050806001600160a01b0316836001600160a01b031614156105c95760405162461bcd60e51b815260206004820152602160248201527f4552433732313a20617070726f76616c20746f2063757272656e74206f776e656044820152603960f91b60648201526084015b60405180910390fd5b336001600160a01b03821614806105e557506105e581336103ff565b6106575760405162461bcd60e51b815260206004820152603d60248201527f4552433732313a20617070726f76652063616c6c6572206973206e6f7420746f60448201527f6b656e206f776e6572206f7220617070726f76656420666f7220616c6c00000060648201526084016105c0565b6106618383610b85565b505050565b610671335b82610bf3565b61068d5760405162461bcd60e51b81526004016105c0906129c4565b610661838383610c72565b60006106a2610deb565b905090565b6001600160a01b03821660009081526007602052604081206106c99083610f12565b9392505050565b6106d861102e565b6106e061108e565b565b61066183838360405180602001604052806000815250610909565b6107063361066b565b6107225760405162461bcd60e51b81526004016105c0906129c4565b61072b816110e0565b50565b3361073981836110e9565b5050565b6000818152600260205260408120546001600160a01b03168061048c5760405162461bcd60e51b8152602060048201526018602482015277115490cdcc8c4e881a5b9d985b1a59081d1bdad95b88125160421b60448201526064016105c0565b60006001600160a01b0382166108075760405162461bcd60e51b815260206004820152602960248201527f4552433732313a2061646472657373207a65726f206973206e6f7420612076616044820152683634b21037bbb732b960b91b60648201526084016105c0565b506001600160a01b031660009081526003602052604090205490565b61082b61102e565b6106e0600061115b565b6001600160a01b03811660009081526009602052604081205461048c565b61085b61102e565b6106e06111b5565b60004382106108b45760405162461bcd60e51b815260206004820152601a60248201527f566f7465733a20626c6f636b206e6f7420796574206d696e656400000000000060448201526064016105c0565b61048c600883610f12565b6060600180546104a190612b25565b6001600160a01b03811660009081526007602052604081206108ef906111f2565b6001600160e01b031692915050565b61073933838361122c565b6109133383610bf3565b61092f5760405162461bcd60e51b81526004016105c0906129c4565b61093b848484846112fb565b50505050565b834211156109915760405162461bcd60e51b815260206004820152601860248201527f566f7465733a207369676e61747572652065787069726564000000000000000060448201526064016105c0565b604080517fe48329057bfd03d55e49b547132e39cffd9c1820ad7b9d4c5307691425d15adf60208201526001600160a01b038816918101919091526060810186905260808101859052600090610a0b90610a039060a0016040516020818303038152906040528051906020012061132e565b85858561137c565b9050610a16816113a4565b8614610a5b5760405162461bcd60e51b8152602060048201526014602482015273566f7465733a20696e76616c6964206e6f6e636560601b60448201526064016105c0565b610a6581886110e9565b50505050505050565b606061048c826113cc565b610a8161102e565b6000610a8c600c5490565b9050610a9c600c80546001019055565b610aa683826114d5565b61066181836114ef565b610ab861102e565b6001600160a01b038116610b1d5760405162461bcd60e51b815260206004820152602660248201527f4f776e61626c653a206e6577206f776e657220697320746865207a65726f206160448201526564647265737360d01b60648201526084016105c0565b61072b8161115b565b6000818152600260205260409020546001600160a01b031661072b5760405162461bcd60e51b8152602060048201526018602482015277115490cdcc8c4e881a5b9d985b1a59081d1bdad95b88125160421b60448201526064016105c0565b600081815260046020526040902080546001600160a01b0319166001600160a01b0384169081179091558190610bba8261073d565b6001600160a01b03167f8c5be1e5ebec7d5bd14f71427d1e84f3dd0314c0f7b2291e5b200ac8c7c3b92560405160405180910390a45050565b600080610bff8361073d565b9050806001600160a01b0316846001600160a01b03161480610c4657506001600160a01b0380821660009081526005602090815260408083209388168352929052205460ff165b80610c6a5750836001600160a01b0316610c5f84610524565b6001600160a01b0316145b949350505050565b826001600160a01b0316610c858261073d565b6001600160a01b031614610cab5760405162461bcd60e51b81526004016105c090612a63565b6001600160a01b038216610d0d5760405162461bcd60e51b8152602060048201526024808201527f4552433732313a207472616e7366657220746f20746865207a65726f206164646044820152637265737360e01b60648201526084016105c0565b610d1a8383836001611589565b826001600160a01b0316610d2d8261073d565b6001600160a01b031614610d535760405162461bcd60e51b81526004016105c090612a63565b600081815260046020908152604080832080546001600160a01b03199081169091556001600160a01b0387811680865260038552838620805460001901905590871680865283862080546001019055868652600290945282852080549092168417909155905184937fddf252ad1be2c89b69c2b068fc378daa952ba7f163c4a11628f55a4df523b3ef91a46106618383836001611611565b6000306001600160a01b037f000000000000000000000000000000000000000000000000000000000000000016148015610e4457507f000000000000000000000000000000000000000000000000000000000000000046145b15610e6e57507f000000000000000000000000000000000000000000000000000000000000000090565b50604080517f00000000000000000000000000000000000000000000000000000000000000006020808301919091527f0000000000000000000000000000000000000000000000000000000000000000828401527f000000000000000000000000000000000000000000000000000000000000000060608301524660808301523060a0808401919091528351808403909101815260c0909201909252805191012090565b6000438210610f635760405162461bcd60e51b815260206004820181905260248201527f436865636b706f696e74733a20626c6f636b206e6f7420796574206d696e656460448201526064016105c0565b6000610f6e8361161d565b84549091506000816005811115610fcc576000610f8a84611686565b610f949085612ae2565b60008981526020902090915081015463ffffffff9081169086161015610fbc57809150610fca565b610fc7816001612aa8565b92505b505b6000610fda8886858561176b565b9050801561101657610fff88610ff1600184612ae2565b600091825260209091200190565b5464010000000090046001600160e01b0316611019565b60005b6001600160e01b031698975050505050505050565b600b546001600160a01b036101009091041633146106e05760405162461bcd60e51b815260206004820181905260248201527f4f776e61626c653a2063616c6c6572206973206e6f7420746865206f776e657260448201526064016105c0565b6110966117c9565b600b805460ff191690557f5db9ee0a495bf2e6ff9c91a7834c1ba4fdd244a5e8aa4e537bd38aeae4b073aa335b6040516001600160a01b03909116815260200160405180910390a1565b61072b81611812565b6001600160a01b0382811660008181526006602052604080822080548686166001600160a01b0319821681179092559151919094169392849290917f3134e8a2e6d97e929a7e54011ea5485d7d196dd5f0ba4d4ef95803e8e3fc257f9190a4610661818361115686611852565b61185d565b600b80546001600160a01b03838116610100818102610100600160a81b031985161790945560405193909204169182907f8be0079c531659141344cd1fd0a4f28419497f9722a3daafe3b4186f6b6457e090600090a35050565b6111bd61199a565b600b805460ff191660011790557f62e78cea01bee320cd4e420270b5ea74000d11b0c9f74754ebdbfc544b05a2586110c33390565b805460009080156112235761120c83610ff1600184612ae2565b5464010000000090046001600160e01b03166106c9565b60009392505050565b816001600160a01b0316836001600160a01b0316141561128e5760405162461bcd60e51b815260206004820152601960248201527f4552433732313a20617070726f766520746f2063616c6c65720000000000000060448201526064016105c0565b6001600160a01b03838116600081815260056020908152604080832094871680845294825291829020805460ff191686151590811790915591519182527f17307eab39ab6107e8899845ad3d59bd9653f200f220920489ca2b5937696c31910160405180910390a3505050565b611306848484610c72565b611312848484846119e0565b61093b5760405162461bcd60e51b81526004016105c090612a11565b600061048c61133b610deb565b8360405161190160f01b6020820152602281018390526042810182905260009060620160405160208183030381529060405280519060200120905092915050565b600080600061138d87878787611aea565b9150915061139a81611bae565b5095945050505050565b6001600160a01b03811660009081526009602052604090208054600181018255905b50919050565b60606113d782610b26565b6000828152600a6020526040812080546113f090612b25565b80601f016020809104026020016040519081016040528092919081815260200182805461141c90612b25565b80156114695780601f1061143e57610100808354040283529160200191611469565b820191906000526020600020905b81548152906001019060200180831161144c57829003601f168201915b50505050509050600061148760408051602081019091526000815290565b905080516000141561149a575092915050565b8151156114cc5780826040516020016114b4929190612945565b60405160208183030381529060405292505050919050565b610c6a84611cfc565b610739828260405180602001604052806000815250611d6f565b6000828152600260205260409020546001600160a01b031661156a5760405162461bcd60e51b815260206004820152602e60248201527f45524337323155524953746f726167653a2055524920736574206f66206e6f6e60448201526d32bc34b9ba32b73a103a37b5b2b760911b60648201526084016105c0565b6000828152600a6020908152604090912082516106619284019061253b565b600181111561093b576001600160a01b038416156115cf576001600160a01b038416600090815260036020526040812080548392906115c9908490612ae2565b90915550505b6001600160a01b0383161561093b576001600160a01b03831660009081526003602052604081208054839290611606908490612aa8565b909155505050505050565b61093b84848484611da2565b600063ffffffff8211156116825760405162461bcd60e51b815260206004820152602660248201527f53616665436173743a2076616c756520646f65736e27742066697420696e203360448201526532206269747360d01b60648201526084016105c0565b5090565b60008161169557506000919050565b600060016116a284611db2565b901c6001901b905060018184816116bb576116bb612b70565b048201901c905060018184816116d3576116d3612b70565b048201901c905060018184816116eb576116eb612b70565b048201901c9050600181848161170357611703612b70565b048201901c9050600181848161171b5761171b612b70565b048201901c9050600181848161173357611733612b70565b048201901c9050600181848161174b5761174b612b70565b048201901c90506106c98182858161176557611765612b70565b04611e46565b60005b818310156117c15760006117828484611e5c565b60008781526020902090915063ffffffff86169082015463ffffffff1611156117ad578092506117bb565b6117b8816001612aa8565b93505b5061176e565b509392505050565b600b5460ff166106e05760405162461bcd60e51b815260206004820152601460248201527314185d5cd8589b194e881b9bdd081c185d5cd95960621b60448201526064016105c0565b61181b81611e77565b6000818152600a60205260409020805461183490612b25565b15905061072b576000818152600a6020526040812061072b916125bb565b600061048c8261079d565b816001600160a01b0316836001600160a01b03161415801561187f5750600081115b15610661576001600160a01b0383161561190d576001600160a01b038316600090815260076020526040812081906118ba90611f2485611f30565b91509150846001600160a01b03167fdec2bacdd2f05b59de34da9b523dff8be42e5e38e818c82fdb0bae774387a7248383604051611902929190918252602082015260400190565b60405180910390a250505b6001600160a01b03821615610661576001600160a01b0382166000908152600760205260408120819061194390611f6885611f30565b91509150836001600160a01b03167fdec2bacdd2f05b59de34da9b523dff8be42e5e38e818c82fdb0bae774387a724838360405161198b929190918252602082015260400190565b60405180910390a25050505050565b600b5460ff16156106e05760405162461bcd60e51b815260206004820152601060248201526f14185d5cd8589b194e881c185d5cd95960821b60448201526064016105c0565b60006001600160a01b0384163b15611ae257604051630a85bd0160e11b81526001600160a01b0385169063150b7a0290611a24903390899088908890600401612974565b602060405180830381600087803b158015611a3e57600080fd5b505af1925050508015611a6e575060408051601f3d908101601f19168201909252611a6b918101906128e3565b60015b611ac8573d808015611a9c576040519150601f19603f3d011682016040523d82523d6000602084013e611aa1565b606091505b508051611ac05760405162461bcd60e51b81526004016105c090612a11565b805181602001fd5b6001600160e01b031916630a85bd0160e11b149050610c6a565b506001610c6a565b6000807f7fffffffffffffffffffffffffffffff5d576e7357a4501ddfe92f46681b20a0831115611b215750600090506003611ba5565b6040805160008082526020820180845289905260ff881692820192909252606081018690526080810185905260019060a0016020604051602081039080840390855afa158015611b75573d6000803e3d6000fd5b5050604051601f1901519150506001600160a01b038116611b9e57600060019250925050611ba5565b9150600090505b94509492505050565b6000816004811115611bc257611bc2612b86565b1415611bcb5750565b6001816004811115611bdf57611bdf612b86565b1415611c2d5760405162461bcd60e51b815260206004820152601860248201527f45434453413a20696e76616c6964207369676e6174757265000000000000000060448201526064016105c0565b6002816004811115611c4157611c41612b86565b1415611c8f5760405162461bcd60e51b815260206004820152601f60248201527f45434453413a20696e76616c6964207369676e6174757265206c656e6774680060448201526064016105c0565b6003816004811115611ca357611ca3612b86565b141561072b5760405162461bcd60e51b815260206004820152602260248201527f45434453413a20696e76616c6964207369676e6174757265202773272076616c604482015261756560f01b60648201526084016105c0565b6060611d0782610b26565b6000611d1e60408051602081019091526000815290565b90506000815111611d3e57604051806020016040528060008152506106c9565b80611d4884611f74565b604051602001611d59929190612945565b6040516020818303038152906040529392505050565b611d798383612009565b611d8660008484846119e0565b6106615760405162461bcd60e51b81526004016105c090612a11565b611dad8484836121ac565b61093b565b600080608083901c15611dc757608092831c92015b604083901c15611dd957604092831c92015b602083901c15611deb57602092831c92015b601083901c15611dfd57601092831c92015b600883901c15611e0f57600892831c92015b600483901c15611e2157600492831c92015b600283901c15611e3357600292831c92015b600183901c1561048c5760010192915050565b6000818310611e5557816106c9565b5090919050565b6000611e6b6002848418612ac0565b6106c990848416612aa8565b6000611e828261073d565b9050611e92816000846001611589565b611e9b8261073d565b600083815260046020908152604080832080546001600160a01b03199081169091556001600160a01b0385168085526003845282852080546000190190558785526002909352818420805490911690555192935084927fddf252ad1be2c89b69c2b068fc378daa952ba7f163c4a11628f55a4df523b3ef908390a4610739816000846001611611565b60006106c98284612ae2565b600080611f5b85611f56611f43886111f2565b6001600160e01b0316868863ffffffff16565b61221c565b915091505b935093915050565b60006106c98284612aa8565b60606000611f8183612250565b600101905060008167ffffffffffffffff811115611fa157611fa1612b9c565b6040519080825280601f01601f191660200182016040528015611fcb576020820181803683370190505b5090508181016020015b600019016f181899199a1a9b1b9c1cb0b131b232b360811b600a86061a8153600a8504945084612004576117c1565b611fd5565b6001600160a01b03821661205f5760405162461bcd60e51b815260206004820181905260248201527f4552433732313a206d696e7420746f20746865207a65726f206164647265737360448201526064016105c0565b6000818152600260205260409020546001600160a01b0316156120c45760405162461bcd60e51b815260206004820152601c60248201527f4552433732313a20746f6b656e20616c7265616479206d696e7465640000000060448201526064016105c0565b6120d2600083836001611589565b6000818152600260205260409020546001600160a01b0316156121375760405162461bcd60e51b815260206004820152601c60248201527f4552433732313a20746f6b656e20616c7265616479206d696e7465640000000060448201526064016105c0565b6001600160a01b038216600081815260036020908152604080832080546001019055848352600290915280822080546001600160a01b0319168417905551839291907fddf252ad1be2c89b69c2b068fc378daa952ba7f163c4a11628f55a4df523b3ef908290a4610739600083836001611611565b6001600160a01b0383166121cb576121c86008611f6883611f30565b50505b6001600160a01b0382166121ea576121e76008611f2483611f30565b50505b6001600160a01b038381166000908152600660205260408082205485841683529120546106619291821691168361185d565b60008061223a8461222c4361161d565b61223586612328565b612391565b6001600160e01b03918216969116945092505050565b60008072184f03e93ff9f4daa797ed6e38ed64bf6a1f0160401b831061228f5772184f03e93ff9f4daa797ed6e38ed64bf6a1f0160401b830492506040015b6d04ee2d6d415b85acef810000000083106122bb576d04ee2d6d415b85acef8100000000830492506020015b662386f26fc1000083106122d957662386f26fc10000830492506010015b6305f5e10083106122f1576305f5e100830492506008015b612710831061230557612710830492506004015b60648310612317576064830492506002015b600a831061048c5760010192915050565b60006001600160e01b038211156116825760405162461bcd60e51b815260206004820152602760248201527f53616665436173743a2076616c756520646f65736e27742066697420696e20326044820152663234206269747360c81b60648201526084016105c0565b8254600090819080156124e15760006123af87610ff1600185612ae2565b60408051808201909152905463ffffffff8082168084526401000000009092046001600160e01b0316602084015291925090871610156124315760405162461bcd60e51b815260206004820152601760248201527f436865636b706f696e743a20696e76616c6964206b657900000000000000000060448201526064016105c0565b8563ffffffff16816000015163ffffffff161415612481578461245988610ff1600186612ae2565b80546001600160e01b03929092166401000000000263ffffffff9092169190911790556124d1565b6040805180820190915263ffffffff80881682526001600160e01b0380881660208085019182528b54600181018d5560008d81529190912094519151909216640100000000029216919091179101555b602001519250839150611f609050565b50506040805180820190915263ffffffff80851682526001600160e01b0380851660208085019182528854600181018a5560008a815291822095519251909316640100000000029190931617920191909155905081611f60565b82805461254790612b25565b90600052602060002090601f01602090048101928261256957600085556125af565b82601f1061258257805160ff19168380011785556125af565b828001600101855582156125af579182015b828111156125af578251825591602001919060010190612594565b506116829291506125f1565b5080546125c790612b25565b6000825580601f106125d7575050565b601f01602090049060005260206000209081019061072b91905b5b8082111561168257600081556001016125f2565b600067ffffffffffffffff8084111561262157612621612b9c565b604051601f8501601f19908116603f0116810190828211818310171561264957612649612b9c565b8160405280935085815286868601111561266257600080fd5b858560208301376000602087830101525050509392505050565b80356001600160a01b038116811461269357600080fd5b919050565b6000602082840312156126aa57600080fd5b6106c98261267c565b600080604083850312156126c657600080fd5b6126cf8361267c565b91506126dd6020840161267c565b90509250929050565b6000806000606084860312156126fb57600080fd5b6127048461267c565b92506127126020850161267c565b9150604084013590509250925092565b6000806000806080858703121561273857600080fd5b6127418561267c565b935061274f6020860161267c565b925060408501359150606085013567ffffffffffffffff81111561277257600080fd5b8501601f8101871361278357600080fd5b61279287823560208401612606565b91505092959194509250565b600080604083850312156127b157600080fd5b6127ba8361267c565b9150602083013580151581146127cf57600080fd5b809150509250929050565b600080604083850312156127ed57600080fd5b6127f68361267c565b9150602083013567ffffffffffffffff81111561281257600080fd5b8301601f8101851361282357600080fd5b61283285823560208401612606565b9150509250929050565b6000806040838503121561284f57600080fd5b6128588361267c565b946020939093013593505050565b60008060008060008060c0878903121561287f57600080fd5b6128888761267c565b95506020870135945060408701359350606087013560ff811681146128ac57600080fd5b9598949750929560808101359460a0909101359350915050565b6000602082840312156128d857600080fd5b81356106c981612bb2565b6000602082840312156128f557600080fd5b81516106c981612bb2565b60006020828403121561291257600080fd5b5035919050565b60008151808452612931816020860160208601612af9565b601f01601f19169290920160200192915050565b60008351612957818460208801612af9565b83519083019061296b818360208801612af9565b01949350505050565b6001600160a01b03858116825284166020820152604081018390526080606082018190526000906129a790830184612919565b9695505050505050565b6020815260006106c96020830184612919565b6020808252602d908201527f4552433732313a2063616c6c6572206973206e6f7420746f6b656e206f776e6560408201526c1c881bdc88185c1c1c9bdd9959609a1b606082015260800190565b60208082526032908201527f4552433732313a207472616e7366657220746f206e6f6e20455243373231526560408201527131b2b4bb32b91034b6b83632b6b2b73a32b960711b606082015260800190565b60208082526025908201527f4552433732313a207472616e736665722066726f6d20696e636f72726563742060408201526437bbb732b960d91b606082015260800190565b60008219821115612abb57612abb612b5a565b500190565b600082612add57634e487b7160e01b600052601260045260246000fd5b500490565b600082821015612af457612af4612b5a565b500390565b60005b83811015612b14578181015183820152602001612afc565b8381111561093b5750506000910152565b600181811c90821680612b3957607f821691505b602082108114156113c657634e487b7160e01b600052602260045260246000fd5b634e487b7160e01b600052601160045260246000fd5b634e487b7160e01b600052601260045260246000fd5b634e487b7160e01b600052602160045260246000fd5b634e487b7160e01b600052604160045260246000fd5b6001600160e01b03198116811461072b57600080fdfea264697066735822122077e91086846fd3f31479abd942a0b224298b0b3c01b5624ef3336773d7ef044864736f6c63430008070033",
  "linkReferences": {},
  "deployedLinkReferences": {}
}